{
  "contractName": "PriceConsumerV3",
  "abi": [
    {
      "inputs": [],
      "stateMutability": "nonpayable",
      "type": "constructor"
    },
    {
      "inputs": [],
      "name": "getThePrice",
      "outputs": [
        {
          "internalType": "uint256",
          "name": "",
          "type": "uint256"
        }
      ],
      "stateMutability": "view",
      "type": "function"
    }
  ],
  "bytecode": "0x608060405234801561001057600080fd5b50732514895c72f50d8bd4b4f9b1110f0d6bd2c975266000806101000a81548173ffffffffffffffffffffffffffffffffffffffff021916908373ffffffffffffffffffffffffffffffffffffffff160217905550610289806100746000396000f3fe608060405234801561001057600080fd5b506004361061002b5760003560e01c80638c3c9a5514610030575b600080fd5b61003861004e565b6040516100459190610114565b60405180910390f35b60008060008060008060008054906101000a900473ffffffffffffffffffffffffffffffffffffffff1673ffffffffffffffffffffffffffffffffffffffff1663feaf968c6040518163ffffffff1660e01b815260040160a060405180830381865afa1580156100c2573d6000803e3d6000fd5b505050506040513d601f19601f820116820180604052508101906100e691906101d8565b94509450945094509450839550505050505090565b6000819050919050565b61010e816100fb565b82525050565b60006020820190506101296000830184610105565b92915050565b600080fd5b600069ffffffffffffffffffff82169050919050565b61015381610134565b811461015e57600080fd5b50565b6000815190506101708161014a565b92915050565b6000819050919050565b61018981610176565b811461019457600080fd5b50565b6000815190506101a681610180565b92915050565b6101b5816100fb565b81146101c057600080fd5b50565b6000815190506101d2816101ac565b92915050565b600080600080600060a086880312156101f4576101f361012f565b5b600061020288828901610161565b955050602061021388828901610197565b9450506040610224888289016101c3565b9350506060610235888289016101c3565b925050608061024688828901610161565b915050929550929590935056fea264697066735822122060a8dc8657641f8a92fd453843145237f040ad034c7963f4ccf2c58264e6fbb964736f6c634300080a0033",
  "immutableReferences": {},
  "source": "pragma solidity ^0.8.10;\n\nimport \"@chainlink/contracts/src/v0.8/interfaces/AggregatorV3Interface.sol\";\n\ncontract PriceConsumerV3 {\n\n    AggregatorV3Interface internal priceFeed;\n\n    /**\n     * Network: BSC testnet\n     * Aggregator: BNB/USD\n     * Address: 0x2514895c72f50D8bd4B4F9b1110F0D6bD2c97526\n     */\n    constructor() {\n        priceFeed = AggregatorV3Interface(0x2514895c72f50D8bd4B4F9b1110F0D6bD2c97526);\n    }\n\n    /**\n     * Returns the latest price\n     */\n    function getThePrice() public view returns (uint256) {\n        (\n            uint80 roundID, \n            int price,\n            uint startedAt,\n            uint timeStamp,\n            uint80 answeredInRound\n        ) = priceFeed.latestRoundData();\n        return uint256(price);\n    }\n}",
  "sourcePath": "/home/jstd/Desktop/stablecoin/contracts/oracle.sol",
  "compiler": {
    "name": "solc",
    "version": "0.8.10+commit.fc410830.Emscripten.clang"
  },
  "schemaVersion": "3.4.4",
  "updatedAt": "2022-01-18T12:34:22.467Z",
  "devdoc": {
    "kind": "dev",
    "methods": {},
    "version": 1
  },
  "userdoc": {
    "kind": "user",
    "methods": {
      "constructor": {
        "notice": "Network: BSC testnet Aggregator: BNB/USD Address: 0x2514895c72f50D8bd4B4F9b1110F0D6bD2c97526"
      },
      "getThePrice()": {
        "notice": "Returns the latest price"
      }
    },
    "version": 1
  }
}