{
  "contractName": "StableCoin",
  "abi": [
    {
      "inputs": [],
      "stateMutability": "nonpayable",
      "type": "constructor"
    },
    {
      "anonymous": false,
      "inputs": [
        {
          "indexed": true,
          "internalType": "address",
          "name": "owner",
          "type": "address"
        },
        {
          "indexed": true,
          "internalType": "address",
          "name": "spender",
          "type": "address"
        },
        {
          "indexed": false,
          "internalType": "uint256",
          "name": "value",
          "type": "uint256"
        }
      ],
      "name": "Approval",
      "type": "event"
    },
    {
      "anonymous": false,
      "inputs": [
        {
          "indexed": true,
          "internalType": "address",
          "name": "from",
          "type": "address"
        },
        {
          "indexed": true,
          "internalType": "address",
          "name": "to",
          "type": "address"
        },
        {
          "indexed": false,
          "internalType": "uint256",
          "name": "value",
          "type": "uint256"
        }
      ],
      "name": "Transfer",
      "type": "event"
    },
    {
      "inputs": [
        {
          "internalType": "address",
          "name": "owner",
          "type": "address"
        },
        {
          "internalType": "address",
          "name": "spender",
          "type": "address"
        }
      ],
      "name": "allowance",
      "outputs": [
        {
          "internalType": "uint256",
          "name": "",
          "type": "uint256"
        }
      ],
      "stateMutability": "view",
      "type": "function"
    },
    {
      "inputs": [
        {
          "internalType": "address",
          "name": "spender",
          "type": "address"
        },
        {
          "internalType": "uint256",
          "name": "amount",
          "type": "uint256"
        }
      ],
      "name": "approve",
      "outputs": [
        {
          "internalType": "bool",
          "name": "",
          "type": "bool"
        }
      ],
      "stateMutability": "nonpayable",
      "type": "function"
    },
    {
      "inputs": [
        {
          "internalType": "address",
          "name": "account",
          "type": "address"
        }
      ],
      "name": "balanceOf",
      "outputs": [
        {
          "internalType": "uint256",
          "name": "",
          "type": "uint256"
        }
      ],
      "stateMutability": "view",
      "type": "function"
    },
    {
      "inputs": [],
      "name": "decimals",
      "outputs": [
        {
          "internalType": "uint8",
          "name": "",
          "type": "uint8"
        }
      ],
      "stateMutability": "view",
      "type": "function"
    },
    {
      "inputs": [
        {
          "internalType": "address",
          "name": "spender",
          "type": "address"
        },
        {
          "internalType": "uint256",
          "name": "subtractedValue",
          "type": "uint256"
        }
      ],
      "name": "decreaseAllowance",
      "outputs": [
        {
          "internalType": "bool",
          "name": "",
          "type": "bool"
        }
      ],
      "stateMutability": "nonpayable",
      "type": "function"
    },
    {
      "inputs": [
        {
          "internalType": "address",
          "name": "spender",
          "type": "address"
        },
        {
          "internalType": "uint256",
          "name": "addedValue",
          "type": "uint256"
        }
      ],
      "name": "increaseAllowance",
      "outputs": [
        {
          "internalType": "bool",
          "name": "",
          "type": "bool"
        }
      ],
      "stateMutability": "nonpayable",
      "type": "function"
    },
    {
      "inputs": [],
      "name": "name",
      "outputs": [
        {
          "internalType": "string",
          "name": "",
          "type": "string"
        }
      ],
      "stateMutability": "view",
      "type": "function"
    },
    {
      "inputs": [],
      "name": "symbol",
      "outputs": [
        {
          "internalType": "string",
          "name": "",
          "type": "string"
        }
      ],
      "stateMutability": "view",
      "type": "function"
    },
    {
      "inputs": [],
      "name": "totalSupply",
      "outputs": [
        {
          "internalType": "uint256",
          "name": "",
          "type": "uint256"
        }
      ],
      "stateMutability": "view",
      "type": "function"
    },
    {
      "inputs": [
        {
          "internalType": "address",
          "name": "recipient",
          "type": "address"
        },
        {
          "internalType": "uint256",
          "name": "amount",
          "type": "uint256"
        }
      ],
      "name": "transfer",
      "outputs": [
        {
          "internalType": "bool",
          "name": "",
          "type": "bool"
        }
      ],
      "stateMutability": "nonpayable",
      "type": "function"
    },
    {
      "inputs": [
        {
          "internalType": "address",
          "name": "sender",
          "type": "address"
        },
        {
          "internalType": "address",
          "name": "recipient",
          "type": "address"
        },
        {
          "internalType": "uint256",
          "name": "amount",
          "type": "uint256"
        }
      ],
      "name": "transferFrom",
      "outputs": [
        {
          "internalType": "bool",
          "name": "",
          "type": "bool"
        }
      ],
      "stateMutability": "nonpayable",
      "type": "function"
    },
    {
      "inputs": [
        {
          "internalType": "uint256",
          "name": "swap_fee",
          "type": "uint256"
        }
      ],
      "name": "setSwapFee",
      "outputs": [],
      "stateMutability": "nonpayable",
      "type": "function"
    },
    {
      "inputs": [],
      "name": "getBNBprice",
      "outputs": [
        {
          "internalType": "uint256",
          "name": "",
          "type": "uint256"
        }
      ],
      "stateMutability": "view",
      "type": "function"
    },
    {
      "inputs": [
        {
          "internalType": "uint256",
          "name": "burn_amount",
          "type": "uint256"
        }
      ],
      "name": "_getSlippageFee",
      "outputs": [
        {
          "internalType": "uint256",
          "name": "",
          "type": "uint256"
        }
      ],
      "stateMutability": "view",
      "type": "function"
    },
    {
      "inputs": [],
      "name": "burnBNBmintDXS",
      "outputs": [],
      "stateMutability": "payable",
      "type": "function"
    },
    {
      "inputs": [
        {
          "internalType": "uint256",
          "name": "amount",
          "type": "uint256"
        }
      ],
      "name": "BurnDXSmintBNB",
      "outputs": [],
      "stateMutability": "nonpayable",
      "type": "function"
    }
  ],
  "bytecode": "0x60806040523480156200001157600080fd5b506040518060400160405280600a81526020017f537461626c65436f696e000000000000000000000000000000000000000000008152506040518060400160405280600381526020017f44585300000000000000000000000000000000000000000000000000000000008152508160039080519060200190620000969291906200016d565b508060049080519060200190620000af9291906200016d565b50505033600560006101000a81548173ffffffffffffffffffffffffffffffffffffffff021916908373ffffffffffffffffffffffffffffffffffffffff16021790555060006006819055506040516200010990620001fe565b604051809103906000f08015801562000126573d6000803e3d6000fd5b50600760006101000a81548173ffffffffffffffffffffffffffffffffffffffff021916908373ffffffffffffffffffffffffffffffffffffffff16021790555062000290565b8280546200017b906200025a565b90600052602060002090601f0160209004810192826200019f5760008555620001eb565b82601f10620001ba57805160ff1916838001178555620001eb565b82800160010185558215620001eb579182015b82811115620001ea578251825591602001919060010190620001cd565b5b509050620001fa91906200020c565b5090565b6102fd80620027c083390190565b5b80821115620002275760008160009055506001016200020d565b5090565b7f4e487b7100000000000000000000000000000000000000000000000000000000600052602260045260246000fd5b600060028204905060018216806200027357607f821691505b602082108114156200028a57620002896200022b565b5b50919050565b61252080620002a06000396000f3fe6080604052600436106100f35760003560e01c80637e16afe11161008a578063a9059cbb11610059578063a9059cbb14610333578063b35202b514610370578063dd62ed3e146103ad578063efc878ed146103ea576100f3565b80637e16afe11461029657806381f239b0146102a057806395d89b41146102cb578063a457c2d7146102f6576100f3565b8063313ce567116100c6578063313ce567146101c857806334e19907146101f3578063395093511461021c57806370a0823114610259576100f3565b806306fdde03146100f8578063095ea7b31461012357806318160ddd1461016057806323b872dd1461018b575b600080fd5b34801561010457600080fd5b5061010d610413565b60405161011a9190611721565b60405180910390f35b34801561012f57600080fd5b5061014a600480360381019061014591906117dc565b6104a5565b6040516101579190611837565b60405180910390f35b34801561016c57600080fd5b506101756104c3565b6040516101829190611861565b60405180910390f35b34801561019757600080fd5b506101b260048036038101906101ad919061187c565b6104cd565b6040516101bf9190611837565b60405180910390f35b3480156101d457600080fd5b506101dd6105c5565b6040516101ea91906118eb565b60405180910390f35b3480156101ff57600080fd5b5061021a60048036038101906102159190611906565b6105ce565b005b34801561022857600080fd5b50610243600480360381019061023e91906117dc565b610668565b6040516102509190611837565b60405180910390f35b34801561026557600080fd5b50610280600480360381019061027b9190611933565b610714565b60405161028d9190611861565b60405180910390f35b61029e61075c565b005b3480156102ac57600080fd5b506102b5610855565b6040516102c29190611861565b60405180910390f35b3480156102d757600080fd5b506102e06108ed565b6040516102ed9190611721565b60405180910390f35b34801561030257600080fd5b5061031d600480360381019061031891906117dc565b61097f565b60405161032a9190611837565b60405180910390f35b34801561033f57600080fd5b5061035a600480360381019061035591906117dc565b610a6a565b6040516103679190611837565b60405180910390f35b34801561037c57600080fd5b5061039760048036038101906103929190611906565b610a88565b6040516103a49190611861565b60405180910390f35b3480156103b957600080fd5b506103d460048036038101906103cf9190611960565b610b1e565b6040516103e19190611861565b60405180910390f35b3480156103f657600080fd5b50610411600480360381019061040c9190611906565b610ba5565b005b606060038054610422906119cf565b80601f016020809104026020016040519081016040528092919081815260200182805461044e906119cf565b801561049b5780601f106104705761010080835404028352916020019161049b565b820191906000526020600020905b81548152906001019060200180831161047e57829003601f168201915b5050505050905090565b60006104b96104b2610eb1565b8484610eb9565b6001905092915050565b6000600254905090565b60006104da848484611084565b6000600160008673ffffffffffffffffffffffffffffffffffffffff1673ffffffffffffffffffffffffffffffffffffffff1681526020019081526020016000206000610525610eb1565b73ffffffffffffffffffffffffffffffffffffffff1673ffffffffffffffffffffffffffffffffffffffff168152602001908152602001600020549050828110156105a5576040517f08c379a000000000000000000000000000000000000000000000000000000000815260040161059c90611a73565b60405180910390fd5b6105b9856105b1610eb1565b858403610eb9565b60019150509392505050565b60006012905090565b600560009054906101000a900473ffffffffffffffffffffffffffffffffffffffff1673ffffffffffffffffffffffffffffffffffffffff163373ffffffffffffffffffffffffffffffffffffffff161461065e576040517f08c379a000000000000000000000000000000000000000000000000000000000815260040161065590611adf565b60405180910390fd5b8060068190555050565b600061070a610675610eb1565b848460016000610683610eb1565b73ffffffffffffffffffffffffffffffffffffffff1673ffffffffffffffffffffffffffffffffffffffff16815260200190815260200160002060008873ffffffffffffffffffffffffffffffffffffffff1673ffffffffffffffffffffffffffffffffffffffff168152602001908152602001600020546107059190611b2e565b610eb9565b6001905092915050565b60008060008373ffffffffffffffffffffffffffffffffffffffff1673ffffffffffffffffffffffffffffffffffffffff168152602001908152602001600020549050919050565b6000341161079f576040517f08c379a000000000000000000000000000000000000000000000000000000000815260040161079690611bd0565b60405180910390fd5b60006107a9610855565b905060006107d66305f5e1006107c8843461130590919063ffffffff16565b61131b90919063ffffffff16565b905060006108036103e86107f56006548561130590919063ffffffff16565b61131b90919063ffffffff16565b9050600081111561083b5761083a600560009054906101000a900473ffffffffffffffffffffffffffffffffffffffff1682611331565b5b61085033828461084b9190611bf0565b611331565b505050565b6000600760009054906101000a900473ffffffffffffffffffffffffffffffffffffffff1673ffffffffffffffffffffffffffffffffffffffff16638c3c9a556040518163ffffffff1660e01b8152600401602060405180830381865afa1580156108c4573d6000803e3d6000fd5b505050506040513d601f19601f820116820180604052508101906108e89190611c39565b905090565b6060600480546108fc906119cf565b80601f0160208091040260200160405190810160405280929190818152602001828054610928906119cf565b80156109755780601f1061094a57610100808354040283529160200191610975565b820191906000526020600020905b81548152906001019060200180831161095857829003601f168201915b5050505050905090565b6000806001600061098e610eb1565b73ffffffffffffffffffffffffffffffffffffffff1673ffffffffffffffffffffffffffffffffffffffff16815260200190815260200160002060008573ffffffffffffffffffffffffffffffffffffffff1673ffffffffffffffffffffffffffffffffffffffff16815260200190815260200160002054905082811015610a4b576040517f08c379a0000000000000000000000000000000000000000000000000000000008152600401610a4290611cd8565b60405180910390fd5b610a5f610a56610eb1565b85858403610eb9565b600191505092915050565b6000610a7e610a77610eb1565b8484611084565b6001905092915050565b600080610a936104c3565b9050828111610ad7576040517f08c379a0000000000000000000000000000000000000000000000000000000008152600401610ace90611d44565b60405180910390fd5b6000610b12610aef858461149190919063ffffffff16565b610b046103e88761130590919063ffffffff16565b61131b90919063ffffffff16565b90508092505050919050565b6000600160008473ffffffffffffffffffffffffffffffffffffffff1673ffffffffffffffffffffffffffffffffffffffff16815260200190815260200160002060008373ffffffffffffffffffffffffffffffffffffffff1673ffffffffffffffffffffffffffffffffffffffff16815260200190815260200160002054905092915050565b80610baf33610714565b1015610bf0576040517f08c379a0000000000000000000000000000000000000000000000000000000008152600401610be790611db0565b60405180910390fd5b610bfa33826114a7565b6000610c0582610a88565b90506101f48110610c4b576040517f08c379a0000000000000000000000000000000000000000000000000000000008152600401610c4290611e1c565b60405180910390fd5b6000610c55610855565b90506000610c806103e8610c72858761130590919063ffffffff16565b61131b90919063ffffffff16565b84610c8b9190611bf0565b9050610cb66305f5e100610ca8848461130590919063ffffffff16565b61131b90919063ffffffff16565b4711610cf7576040517f08c379a0000000000000000000000000000000000000000000000000000000008152600401610cee90611e88565b60405180910390fd5b6000610d226103e8610d146006548561130590919063ffffffff16565b61131b90919063ffffffff16565b905060003373ffffffffffffffffffffffffffffffffffffffff168284610d499190611bf0565b604051610d5590611ed9565b60006040518083038185875af1925050503d8060008114610d92576040519150601f19603f3d011682016040523d82523d6000602084013e610d97565b606091505b5050905080610ddb576040517f08c379a0000000000000000000000000000000000000000000000000000000008152600401610dd290611f3a565b60405180910390fd5b600560009054906101000a900473ffffffffffffffffffffffffffffffffffffffff1673ffffffffffffffffffffffffffffffffffffffff1682604051610e2190611ed9565b60006040518083038185875af1925050503d8060008114610e5e576040519150601f19603f3d011682016040523d82523d6000602084013e610e63565b606091505b50508091505080610ea9576040517f08c379a0000000000000000000000000000000000000000000000000000000008152600401610ea090611fa6565b60405180910390fd5b505050505050565b600033905090565b600073ffffffffffffffffffffffffffffffffffffffff168373ffffffffffffffffffffffffffffffffffffffff161415610f29576040517f08c379a0000000000000000000000000000000000000000000000000000000008152600401610f2090612038565b60405180910390fd5b600073ffffffffffffffffffffffffffffffffffffffff168273ffffffffffffffffffffffffffffffffffffffff161415610f99576040517f08c379a0000000000000000000000000000000000000000000000000000000008152600401610f90906120ca565b60405180910390fd5b80600160008573ffffffffffffffffffffffffffffffffffffffff1673ffffffffffffffffffffffffffffffffffffffff16815260200190815260200160002060008473ffffffffffffffffffffffffffffffffffffffff1673ffffffffffffffffffffffffffffffffffffffff168152602001908152602001600020819055508173ffffffffffffffffffffffffffffffffffffffff168373ffffffffffffffffffffffffffffffffffffffff167f8c5be1e5ebec7d5bd14f71427d1e84f3dd0314c0f7b2291e5b200ac8c7c3b925836040516110779190611861565b60405180910390a3505050565b600073ffffffffffffffffffffffffffffffffffffffff168373ffffffffffffffffffffffffffffffffffffffff1614156110f4576040517f08c379a00000000000000000000000000000000000000000000000000000000081526004016110eb9061215c565b60405180910390fd5b600073ffffffffffffffffffffffffffffffffffffffff168273ffffffffffffffffffffffffffffffffffffffff161415611164576040517f08c379a000000000000000000000000000000000000000000000000000000000815260040161115b906121ee565b60405180910390fd5b61116f83838361167e565b60008060008573ffffffffffffffffffffffffffffffffffffffff1673ffffffffffffffffffffffffffffffffffffffff168152602001908152602001600020549050818110156111f5576040517f08c379a00000000000000000000000000000000000000000000000000000000081526004016111ec90612280565b60405180910390fd5b8181036000808673ffffffffffffffffffffffffffffffffffffffff1673ffffffffffffffffffffffffffffffffffffffff16815260200190815260200160002081905550816000808573ffffffffffffffffffffffffffffffffffffffff1673ffffffffffffffffffffffffffffffffffffffff16815260200190815260200160002060008282546112889190611b2e565b925050819055508273ffffffffffffffffffffffffffffffffffffffff168473ffffffffffffffffffffffffffffffffffffffff167fddf252ad1be2c89b69c2b068fc378daa952ba7f163c4a11628f55a4df523b3ef846040516112ec9190611861565b60405180910390a36112ff848484611683565b50505050565b6000818361131391906122a0565b905092915050565b600081836113299190612329565b905092915050565b600073ffffffffffffffffffffffffffffffffffffffff168273ffffffffffffffffffffffffffffffffffffffff1614156113a1576040517f08c379a0000000000000000000000000000000000000000000000000000000008152600401611398906123a6565b60405180910390fd5b6113ad6000838361167e565b80600260008282546113bf9190611b2e565b92505081905550806000808473ffffffffffffffffffffffffffffffffffffffff1673ffffffffffffffffffffffffffffffffffffffff16815260200190815260200160002060008282546114149190611b2e565b925050819055508173ffffffffffffffffffffffffffffffffffffffff16600073ffffffffffffffffffffffffffffffffffffffff167fddf252ad1be2c89b69c2b068fc378daa952ba7f163c4a11628f55a4df523b3ef836040516114799190611861565b60405180910390a361148d60008383611683565b5050565b6000818361149f9190611bf0565b905092915050565b600073ffffffffffffffffffffffffffffffffffffffff168273ffffffffffffffffffffffffffffffffffffffff161415611517576040517f08c379a000000000000000000000000000000000000000000000000000000000815260040161150e90612438565b60405180910390fd5b6115238260008361167e565b60008060008473ffffffffffffffffffffffffffffffffffffffff1673ffffffffffffffffffffffffffffffffffffffff168152602001908152602001600020549050818110156115a9576040517f08c379a00000000000000000000000000000000000000000000000000000000081526004016115a0906124ca565b60405180910390fd5b8181036000808573ffffffffffffffffffffffffffffffffffffffff1673ffffffffffffffffffffffffffffffffffffffff1681526020019081526020016000208190555081600260008282546116009190611bf0565b92505081905550600073ffffffffffffffffffffffffffffffffffffffff168373ffffffffffffffffffffffffffffffffffffffff167fddf252ad1be2c89b69c2b068fc378daa952ba7f163c4a11628f55a4df523b3ef846040516116659190611861565b60405180910390a361167983600084611683565b505050565b505050565b505050565b600081519050919050565b600082825260208201905092915050565b60005b838110156116c25780820151818401526020810190506116a7565b838111156116d1576000848401525b50505050565b6000601f19601f8301169050919050565b60006116f382611688565b6116fd8185611693565b935061170d8185602086016116a4565b611716816116d7565b840191505092915050565b6000602082019050818103600083015261173b81846116e8565b905092915050565b600080fd5b600073ffffffffffffffffffffffffffffffffffffffff82169050919050565b600061177382611748565b9050919050565b61178381611768565b811461178e57600080fd5b50565b6000813590506117a08161177a565b92915050565b6000819050919050565b6117b9816117a6565b81146117c457600080fd5b50565b6000813590506117d6816117b0565b92915050565b600080604083850312156117f3576117f2611743565b5b600061180185828601611791565b9250506020611812858286016117c7565b9150509250929050565b60008115159050919050565b6118318161181c565b82525050565b600060208201905061184c6000830184611828565b92915050565b61185b816117a6565b82525050565b60006020820190506118766000830184611852565b92915050565b60008060006060848603121561189557611894611743565b5b60006118a386828701611791565b93505060206118b486828701611791565b92505060406118c5868287016117c7565b9150509250925092565b600060ff82169050919050565b6118e5816118cf565b82525050565b600060208201905061190060008301846118dc565b92915050565b60006020828403121561191c5761191b611743565b5b600061192a848285016117c7565b91505092915050565b60006020828403121561194957611948611743565b5b600061195784828501611791565b91505092915050565b6000806040838503121561197757611976611743565b5b600061198585828601611791565b925050602061199685828601611791565b9150509250929050565b7f4e487b7100000000000000000000000000000000000000000000000000000000600052602260045260246000fd5b600060028204905060018216806119e757607f821691505b602082108114156119fb576119fa6119a0565b5b50919050565b7f45524332303a207472616e7366657220616d6f756e742065786365656473206160008201527f6c6c6f77616e6365000000000000000000000000000000000000000000000000602082015250565b6000611a5d602883611693565b9150611a6882611a01565b604082019050919050565b60006020820190508181036000830152611a8c81611a50565b9050919050565b7f596f7520617265206e6f7420636f6e7472616374206f776e6572000000000000600082015250565b6000611ac9601a83611693565b9150611ad482611a93565b602082019050919050565b60006020820190508181036000830152611af881611abc565b9050919050565b7f4e487b7100000000000000000000000000000000000000000000000000000000600052601160045260246000fd5b6000611b39826117a6565b9150611b44836117a6565b9250827fffffffffffffffffffffffffffffffffffffffffffffffffffffffffffffffff03821115611b7957611b78611aff565b5b828201905092915050565b7f4e6f7420656e6f75676820424e4220746f206275726e2e000000000000000000600082015250565b6000611bba601783611693565b9150611bc582611b84565b602082019050919050565b60006020820190508181036000830152611be981611bad565b9050919050565b6000611bfb826117a6565b9150611c06836117a6565b925082821015611c1957611c18611aff565b5b828203905092915050565b600081519050611c33816117b0565b92915050565b600060208284031215611c4f57611c4e611743565b5b6000611c5d84828501611c24565b91505092915050565b7f45524332303a2064656372656173656420616c6c6f77616e63652062656c6f7760008201527f207a65726f000000000000000000000000000000000000000000000000000000602082015250565b6000611cc2602583611693565b9150611ccd82611c66565b604082019050919050565b60006020820190508181036000830152611cf181611cb5565b9050919050565b7f536f6d657468696e672077656e742077726f6e672e0000000000000000000000600082015250565b6000611d2e601583611693565b9150611d3982611cf8565b602082019050919050565b60006020820190508181036000830152611d5d81611d21565b9050919050565b7f4e6f7420656e6f756768204458532e0000000000000000000000000000000000600082015250565b6000611d9a600f83611693565b9150611da582611d64565b602082019050919050565b60006020820190508181036000830152611dc981611d8d565b9050919050565b7f4275726e20746f6f206d756368204458532e0000000000000000000000000000600082015250565b6000611e06601283611693565b9150611e1182611dd0565b602082019050919050565b60006020820190508181036000830152611e3581611df9565b9050919050565b7f4e6f7420656e6f756768206d6f6e65792e000000000000000000000000000000600082015250565b6000611e72601183611693565b9150611e7d82611e3c565b602082019050919050565b60006020820190508181036000830152611ea181611e65565b9050919050565b600081905092915050565b50565b6000611ec3600083611ea8565b9150611ece82611eb3565b600082019050919050565b6000611ee482611eb6565b9150819050919050565b7f5472616e7366657220746f20637573746f6d6572206661696c65642e00000000600082015250565b6000611f24601c83611693565b9150611f2f82611eee565b602082019050919050565b60006020820190508181036000830152611f5381611f17565b9050919050565b7f5472616e7366657220746f206f776e6572206661696c65642e00000000000000600082015250565b6000611f90601983611693565b9150611f9b82611f5a565b602082019050919050565b60006020820190508181036000830152611fbf81611f83565b9050919050565b7f45524332303a20617070726f76652066726f6d20746865207a65726f2061646460008201527f7265737300000000000000000000000000000000000000000000000000000000602082015250565b6000612022602483611693565b915061202d82611fc6565b604082019050919050565b6000602082019050818103600083015261205181612015565b9050919050565b7f45524332303a20617070726f766520746f20746865207a65726f20616464726560008201527f7373000000000000000000000000000000000000000000000000000000000000602082015250565b60006120b4602283611693565b91506120bf82612058565b604082019050919050565b600060208201905081810360008301526120e3816120a7565b9050919050565b7f45524332303a207472616e736665722066726f6d20746865207a65726f20616460008201527f6472657373000000000000000000000000000000000000000000000000000000602082015250565b6000612146602583611693565b9150612151826120ea565b604082019050919050565b6000602082019050818103600083015261217581612139565b9050919050565b7f45524332303a207472616e7366657220746f20746865207a65726f206164647260008201527f6573730000000000000000000000000000000000000000000000000000000000602082015250565b60006121d8602383611693565b91506121e38261217c565b604082019050919050565b60006020820190508181036000830152612207816121cb565b9050919050565b7f45524332303a207472616e7366657220616d6f756e742065786365656473206260008201527f616c616e63650000000000000000000000000000000000000000000000000000602082015250565b600061226a602683611693565b91506122758261220e565b604082019050919050565b600060208201905081810360008301526122998161225d565b9050919050565b60006122ab826117a6565b91506122b6836117a6565b9250817fffffffffffffffffffffffffffffffffffffffffffffffffffffffffffffffff04831182151516156122ef576122ee611aff565b5b828202905092915050565b7f4e487b7100000000000000000000000000000000000000000000000000000000600052601260045260246000fd5b6000612334826117a6565b915061233f836117a6565b92508261234f5761234e6122fa565b5b828204905092915050565b7f45524332303a206d696e7420746f20746865207a65726f206164647265737300600082015250565b6000612390601f83611693565b915061239b8261235a565b602082019050919050565b600060208201905081810360008301526123bf81612383565b9050919050565b7f45524332303a206275726e2066726f6d20746865207a65726f2061646472657360008201527f7300000000000000000000000000000000000000000000000000000000000000602082015250565b6000612422602183611693565b915061242d826123c6565b604082019050919050565b6000602082019050818103600083015261245181612415565b9050919050565b7f45524332303a206275726e20616d6f756e7420657863656564732062616c616e60008201527f6365000000000000000000000000000000000000000000000000000000000000602082015250565b60006124b4602283611693565b91506124bf82612458565b604082019050919050565b600060208201905081810360008301526124e3816124a7565b905091905056fea26469706673582212200708e4d4431f0313e5a1e8c7a0e2e237190a88b442d0ef7987ea0fe09657031264736f6c634300080a0033608060405234801561001057600080fd5b50732514895c72f50d8bd4b4f9b1110f0d6bd2c975266000806101000a81548173ffffffffffffffffffffffffffffffffffffffff021916908373ffffffffffffffffffffffffffffffffffffffff160217905550610289806100746000396000f3fe608060405234801561001057600080fd5b506004361061002b5760003560e01c80638c3c9a5514610030575b600080fd5b61003861004e565b6040516100459190610114565b60405180910390f35b60008060008060008060008054906101000a900473ffffffffffffffffffffffffffffffffffffffff1673ffffffffffffffffffffffffffffffffffffffff1663feaf968c6040518163ffffffff1660e01b815260040160a060405180830381865afa1580156100c2573d6000803e3d6000fd5b505050506040513d601f19601f820116820180604052508101906100e691906101d8565b94509450945094509450839550505050505090565b6000819050919050565b61010e816100fb565b82525050565b60006020820190506101296000830184610105565b92915050565b600080fd5b600069ffffffffffffffffffff82169050919050565b61015381610134565b811461015e57600080fd5b50565b6000815190506101708161014a565b92915050565b6000819050919050565b61018981610176565b811461019457600080fd5b50565b6000815190506101a681610180565b92915050565b6101b5816100fb565b81146101c057600080fd5b50565b6000815190506101d2816101ac565b92915050565b600080600080600060a086880312156101f4576101f361012f565b5b600061020288828901610161565b955050602061021388828901610197565b9450506040610224888289016101c3565b9350506060610235888289016101c3565b925050608061024688828901610161565b915050929550929590935056fea264697066735822122060a8dc8657641f8a92fd453843145237f040ad034c7963f4ccf2c58264e6fbb964736f6c634300080a0033",
  "immutableReferences": {},
  "source": "pragma solidity ^0.8.10;\n\nimport \"@openzeppelin/contracts/token/ERC20/ERC20.sol\";\nimport \"@openzeppelin/contracts/utils/math/SafeMath.sol\";\nimport \"./oracle.sol\";\ncontract StableCoin is ERC20 {\n    using SafeMath for uint256;\n\n    address _owner;\n    uint _swap_fee; // per thousand\n    PriceConsumerV3 _bnb_price;\n    constructor() ERC20(\"StableCoin\", \"DXS\") {\n        _owner = msg.sender;\n        _swap_fee = 0;\n        _bnb_price = new PriceConsumerV3();\n    }\n\n    //Modifier\n    modifier onlyOwner(){\n        require(msg.sender == _owner, \"You are not contract owner\");\n        _;\n    }\n\n    function setSwapFee(uint swap_fee) external onlyOwner {\n        _swap_fee = swap_fee;\n    }\n\n    function getBNBprice() public view returns(uint256){\n      return _bnb_price.getThePrice();\n    }\n    function _getSlippageFee(uint256 burn_amount) public view returns(uint256){\n        uint256 totalSupply = totalSupply();\n        require(totalSupply>burn_amount, \"Something went wrong.\");\n        uint256 slippage_fee = burn_amount.mul(1000).div(totalSupply.sub(burn_amount));\n        return slippage_fee;\n    }\n    // burn BNB mint DXS\n    function burnBNBmintDXS() public payable{\n        require(msg.value>0, \"Not enough BNB to burn.\");\n        uint256 price = getBNBprice();\n        uint256 amount = uint256(msg.value).mul(price).div(10**8);\n        uint256 fee = amount.mul(_swap_fee).div(1000);\n        if(fee>0)\n            _mint(_owner, fee);\n        _mint(msg.sender, amount-fee);\n    }\n\n    //burn DXS mint BNB\n    function BurnDXSmintBNB(uint256 amount) public {\n        require(balanceOf(msg.sender)>= amount, \"Not enough DXS.\");\n        _burn(msg.sender, amount);\n        uint256 slippage_fee = _getSlippageFee(amount);\n        require(slippage_fee<500, \"Burn too much DXS.\");\n        uint256 price = getBNBprice();\n        uint256 _amount = amount - amount.mul(slippage_fee).div(1000);\n        require(address(this).balance>_amount.mul(price).div(10**8),\"Not enough money.\");\n\n        uint256 fee = _amount.mul(_swap_fee).div(1000);\n        (bool success, ) = msg.sender.call{value:_amount-fee}(\"\");\n        require(success, \"Transfer to customer failed.\");\n        (success, ) = _owner.call{value:fee}(\"\");\n        require(success, \"Transfer to owner failed.\");\n    }\n\n}",
  "sourcePath": "/home/jstd/Desktop/stablecoin/contracts/StableCoin.sol",
  "compiler": {
    "name": "solc",
    "version": "0.8.10+commit.fc410830.Emscripten.clang"
  },
  "schemaVersion": "3.4.4",
  "updatedAt": "2022-01-18T12:34:22.459Z",
  "devdoc": {
    "kind": "dev",
    "methods": {
      "allowance(address,address)": {
        "details": "See {IERC20-allowance}."
      },
      "approve(address,uint256)": {
        "details": "See {IERC20-approve}. Requirements: - `spender` cannot be the zero address."
      },
      "balanceOf(address)": {
        "details": "See {IERC20-balanceOf}."
      },
      "decimals()": {
        "details": "Returns the number of decimals used to get its user representation. For example, if `decimals` equals `2`, a balance of `505` tokens should be displayed to a user as `5.05` (`505 / 10 ** 2`). Tokens usually opt for a value of 18, imitating the relationship between Ether and Wei. This is the value {ERC20} uses, unless this function is overridden; NOTE: This information is only used for _display_ purposes: it in no way affects any of the arithmetic of the contract, including {IERC20-balanceOf} and {IERC20-transfer}."
      },
      "decreaseAllowance(address,uint256)": {
        "details": "Atomically decreases the allowance granted to `spender` by the caller. This is an alternative to {approve} that can be used as a mitigation for problems described in {IERC20-approve}. Emits an {Approval} event indicating the updated allowance. Requirements: - `spender` cannot be the zero address. - `spender` must have allowance for the caller of at least `subtractedValue`."
      },
      "increaseAllowance(address,uint256)": {
        "details": "Atomically increases the allowance granted to `spender` by the caller. This is an alternative to {approve} that can be used as a mitigation for problems described in {IERC20-approve}. Emits an {Approval} event indicating the updated allowance. Requirements: - `spender` cannot be the zero address."
      },
      "name()": {
        "details": "Returns the name of the token."
      },
      "symbol()": {
        "details": "Returns the symbol of the token, usually a shorter version of the name."
      },
      "totalSupply()": {
        "details": "See {IERC20-totalSupply}."
      },
      "transfer(address,uint256)": {
        "details": "See {IERC20-transfer}. Requirements: - `recipient` cannot be the zero address. - the caller must have a balance of at least `amount`."
      },
      "transferFrom(address,address,uint256)": {
        "details": "See {IERC20-transferFrom}. Emits an {Approval} event indicating the updated allowance. This is not required by the EIP. See the note at the beginning of {ERC20}. Requirements: - `sender` and `recipient` cannot be the zero address. - `sender` must have a balance of at least `amount`. - the caller must have allowance for ``sender``'s tokens of at least `amount`."
      }
    },
    "version": 1
  },
  "userdoc": {
    "kind": "user",
    "methods": {},
    "version": 1
  }
}